{
  "_format": "hh-sol-artifact-1",
  "contractName": "EncryptedLuckyDraw",
  "sourceName": "contracts/EncryptedLuckyDraw.sol",
  "abi": [
    {
      "anonymous": false,
      "inputs": [
        {
          "indexed": true,
          "internalType": "uint256",
          "name": "index",
          "type": "uint256"
        },
        {
          "indexed": true,
          "internalType": "address",
          "name": "account",
          "type": "address"
        }
      ],
      "name": "ParticipantRegistered",
      "type": "event"
    },
    {
      "anonymous": false,
      "inputs": [
        {
          "indexed": true,
          "internalType": "uint256",
          "name": "index",
          "type": "uint256"
        },
        {
          "indexed": true,
          "internalType": "address",
          "name": "account",
          "type": "address"
        }
      ],
      "name": "WinnerDrawn",
      "type": "event"
    },
    {
      "inputs": [],
      "name": "drawWinner",
      "outputs": [
        {
          "internalType": "uint256",
          "name": "winnerIndexPlain",
          "type": "uint256"
        }
      ],
      "stateMutability": "nonpayable",
      "type": "function"
    },
    {
      "inputs": [],
      "name": "getEncryptedWinnerIndex",
      "outputs": [
        {
          "internalType": "euint32",
          "name": "",
          "type": "bytes32"
        }
      ],
      "stateMutability": "view",
      "type": "function"
    },
    {
      "inputs": [],
      "name": "getEncryptedWinnerName",
      "outputs": [
        {
          "internalType": "euint64",
          "name": "",
          "type": "bytes32"
        }
      ],
      "stateMutability": "view",
      "type": "function"
    },
    {
      "inputs": [
        {
          "internalType": "uint256",
          "name": "index",
          "type": "uint256"
        }
      ],
      "name": "getParticipantAccount",
      "outputs": [
        {
          "internalType": "address",
          "name": "",
          "type": "address"
        }
      ],
      "stateMutability": "view",
      "type": "function"
    },
    {
      "inputs": [],
      "name": "getParticipantsCount",
      "outputs": [
        {
          "internalType": "uint256",
          "name": "",
          "type": "uint256"
        }
      ],
      "stateMutability": "view",
      "type": "function"
    },
    {
      "inputs": [],
      "name": "getWinnerAccount",
      "outputs": [
        {
          "internalType": "address",
          "name": "",
          "type": "address"
        }
      ],
      "stateMutability": "view",
      "type": "function"
    },
    {
      "inputs": [],
      "name": "protocolId",
      "outputs": [
        {
          "internalType": "uint256",
          "name": "",
          "type": "uint256"
        }
      ],
      "stateMutability": "pure",
      "type": "function"
    },
    {
      "inputs": [
        {
          "internalType": "externalEuint64",
          "name": "encryptedNameHandle",
          "type": "bytes32"
        },
        {
          "internalType": "bytes",
          "name": "inputProof",
          "type": "bytes"
        }
      ],
      "name": "registerParticipant",
      "outputs": [
        {
          "internalType": "uint256",
          "name": "index",
          "type": "uint256"
        }
      ],
      "stateMutability": "nonpayable",
      "type": "function"
    }
  ],
  "bytecode": "0x608060405234801561000f575f5ffd5b5061018a6100ae604080516080810182525f80825260208201819052918101829052606081019190915250604080516080810182527350157cffd6bbfa2dece204a89ec419c23ef5755d815273cd3ab3bd6bcc0c0bf3e27912a92043e817b1cf69602082015273a02cda4ca3a71d7c46997716f4283aa851c2881291810191909152731364cbbf2cdf5032c47d8226a6f6fbd2afcdacac606082015290565b80517f9e7b61f58c47dc699ac88507c4f5bb9f121c03808c5676a8078fe583e464970080546001600160a01b03199081166001600160a01b039384161790915560208301517f9e7b61f58c47dc699ac88507c4f5bb9f121c03808c5676a8078fe583e46497018054831691841691909117905560408301517f9e7b61f58c47dc699ac88507c4f5bb9f121c03808c5676a8078fe583e46497028054831691841691909117905560608301517f9e7b61f58c47dc699ac88507c4f5bb9f121c03808c5676a8078fe583e46497038054909216921691909117905550565b610a3c806101975f395ff3fe608060405234801561000f575f5ffd5b5060043610610085575f3560e01c8063cabfaa1811610058578063cabfaa18146100df578063d0cf05f3146100e6578063da1f12ab146100f9578063e3736d9714610101575f5ffd5b8063509515b51461008957806384bc65b0146100ae578063888436a1146100cf578063b2185bb1146100d7575b5f5ffd5b610091610109565b6040516001600160a01b0390911681526020015b60405180910390f35b6100c16100bc3660046108a3565b610169565b6040519081526020016100a5565b6100c16102af565b6100c1610301565b5f546100c1565b6100916100f436600461091a565b61051d565b6127116100c1565b6100c16105a2565b6003545f90600160a01b900460ff166101595760405162461bcd60e51b815260206004820152600d60248201526c139bc81dda5b9b995c881e595d609a1b60448201526064015b60405180910390fd5b506003546001600160a01b031690565b5f5f6101aa8585858080601f0160208091040260200160405190810160405280939291908181526020018383808284375f920191909152506105f492505050565b90506101b58161060a565b506101c08133610619565b506040805180820190915281815233602082019081525f80546001808201835582805293517f290decd9548b62a8d60345a988386fc84ba6bc95484008f6362f93160ef3e56360029092029182015591517f290decd9548b62a8d60345a988386fc84ba6bc95484008f6362f93160ef3e564909201805473ffffffffffffffffffffffffffffffffffffffff19166001600160a01b03909316929092179091555461026b9190610931565b6003805460ff60a01b19169055604051909250339083907f78337b3a0cfc36faafab5a292dc7571f6bd68ba681c22e15c97b1e3469b51a02905f90a3509392505050565b6003545f90600160a01b900460ff166102fa5760405162461bcd60e51b815260206004820152600d60248201526c139bc81dda5b9b995c881e595d609a1b6044820152606401610150565b5060025490565b5f8054600181116103545760405162461bcd60e51b815260206004820152601e60248201527f4e656564206174206c656173742074776f207061727469636970616e747300006044820152606401610150565b5f4244610362600143610931565b6040805160208101949094528301919091524060608083019190915230901b6bffffffffffffffffffffffff191660808201526094810183905260b40160408051601f19818403018152919052805160209091012090506103c38282610950565b63ffffffff1692505f5f84815481106103de576103de61096f565b5f91825260209091206001600290920201818101546003805473ffffffffffffffffffffffffffffffffffffffff19166001600160a01b039092169190911790558054909155905061042f8461062b565b6002556003805460ff60a01b1916600160a01b1790556001546104519061060a565b5061045d60025461060a565b5061046a60015433610619565b5061047760025433610619565b505f5b838110156104dd576104bb6001545f838154811061049a5761049a61096f565b5f9182526020909120600160029092020101546001600160a01b0316610619565b506104d46002545f838154811061049a5761049a61096f565b5060010161047a565b506003546040516001600160a01b039091169085907fa32be17495f4ca52a36e64b567f7ee15d108becc107da2b4fa1b755b50d86d04905f90a350505090565b5f8054821061056e5760405162461bcd60e51b815260206004820152601260248201527f496e646578206f7574206f662072616e676500000000000000000000000000006044820152606401610150565b5f82815481106105805761058061096f565b5f9182526020909120600160029092020101546001600160a01b031692915050565b6003545f90600160a01b900460ff166105ed5760405162461bcd60e51b815260206004820152600d60248201526c139bc81dda5b9b995c881e595d609a1b6044820152606401610150565b5060015490565b5f6106018383600561063d565b90505b92915050565b5f610615823061075d565b5090565b5f610624838361075d565b5090919050565b5f6106048263ffffffff1660046107e6565b7f9e7b61f58c47dc699ac88507c4f5bb9f121c03808c5676a8078fe583e46497015460405163196d0b9b60e01b81525f917f9e7b61f58c47dc699ac88507c4f5bb9f121c03808c5676a8078fe583e4649700916001600160a01b039091169063196d0b9b906106b69088903390899089906004016109a3565b6020604051808303815f875af11580156106d2573d5f5f3e3d5ffd5b505050506040513d601f19601f820116820180604052508101906106f691906109fd565b8154604051630f8e573b60e21b8152600481018390523360248201529193506001600160a01b031690633e395cec906044015f604051808303815f87803b15801561073f575f5ffd5b505af1158015610751573d5f5f3e3d5ffd5b50505050509392505050565b5f7f9e7b61f58c47dc699ac88507c4f5bb9f121c03808c5676a8078fe583e46497008054604051635ca4b5b160e11b8152600481018690526001600160a01b03858116602483015292935091169063b9496b62906044015f604051808303815f87803b1580156107cb575f5ffd5b505af11580156107dd573d5f5f3e3d5ffd5b50505050505050565b7f9e7b61f58c47dc699ac88507c4f5bb9f121c03808c5676a8078fe583e464970154604051639cd07acb60e01b81525f917f9e7b61f58c47dc699ac88507c4f5bb9f121c03808c5676a8078fe583e4649700916001600160a01b0390911690639cd07acb9061085b9087908790600401610a14565b6020604051808303815f875af1158015610877573d5f5f3e3d5ffd5b505050506040513d601f19601f8201168201806040525081019061089b91906109fd565b949350505050565b5f5f5f604084860312156108b5575f5ffd5b83359250602084013567ffffffffffffffff8111156108d2575f5ffd5b8401601f810186136108e2575f5ffd5b803567ffffffffffffffff8111156108f8575f5ffd5b866020828401011115610909575f5ffd5b939660209190910195509293505050565b5f6020828403121561092a575f5ffd5b5035919050565b8181038181111561060457634e487b7160e01b5f52601160045260245ffd5b5f8261096a57634e487b7160e01b5f52601260045260245ffd5b500690565b634e487b7160e01b5f52603260045260245ffd5b6054811061099f57634e487b7160e01b5f52602160045260245ffd5b9052565b8481526001600160a01b0384166020820152608060408201525f8351806080840152806020860160a085015e5f60a0828501015260a0601f19601f8301168401019150506109f46060830184610983565b95945050505050565b5f60208284031215610a0d575f5ffd5b5051919050565b82815260408101610a286020830184610983565b939250505056fea164736f6c634300081b000a",
  "linkReferences": {},
  "deployedLinkReferences": {}
}